{
  "contractName": "PixelDapp",
  "abi": [
    {
      "inputs": [],
      "stateMutability": "nonpayable",
      "type": "constructor"
    },
    {
      "anonymous": false,
      "inputs": [
        {
          "indexed": false,
          "internalType": "uint256",
          "name": "id",
          "type": "uint256"
        },
        {
          "indexed": false,
          "internalType": "string",
          "name": "hash",
          "type": "string"
        },
        {
          "indexed": false,
          "internalType": "string",
          "name": "description",
          "type": "string"
        },
        {
          "indexed": false,
          "internalType": "uint256",
          "name": "tipAmount",
          "type": "uint256"
        },
        {
          "indexed": false,
          "internalType": "address payable",
          "name": "author",
          "type": "address"
        }
      ],
      "name": "CreatePixel",
      "type": "event"
    },
    {
      "anonymous": false,
      "inputs": [
        {
          "indexed": false,
          "internalType": "uint256",
          "name": "id",
          "type": "uint256"
        },
        {
          "indexed": false,
          "internalType": "string",
          "name": "hash",
          "type": "string"
        },
        {
          "indexed": false,
          "internalType": "string",
          "name": "description",
          "type": "string"
        },
        {
          "indexed": false,
          "internalType": "uint256",
          "name": "likeCount",
          "type": "uint256"
        }
      ],
      "name": "LikePixel",
      "type": "event"
    },
    {
      "anonymous": false,
      "inputs": [
        {
          "indexed": false,
          "internalType": "uint256",
          "name": "id",
          "type": "uint256"
        },
        {
          "indexed": false,
          "internalType": "string",
          "name": "hash",
          "type": "string"
        },
        {
          "indexed": false,
          "internalType": "string",
          "name": "description",
          "type": "string"
        },
        {
          "indexed": false,
          "internalType": "uint256",
          "name": "tipAmount",
          "type": "uint256"
        },
        {
          "indexed": false,
          "internalType": "address payable",
          "name": "author",
          "type": "address"
        }
      ],
      "name": "TipPixel",
      "type": "event"
    },
    {
      "inputs": [],
      "name": "imageCount",
      "outputs": [
        {
          "internalType": "uint256",
          "name": "",
          "type": "uint256"
        }
      ],
      "stateMutability": "view",
      "type": "function",
      "constant": true
    },
    {
      "inputs": [
        {
          "internalType": "uint256",
          "name": "",
          "type": "uint256"
        }
      ],
      "name": "images",
      "outputs": [
        {
          "internalType": "uint256",
          "name": "id",
          "type": "uint256"
        },
        {
          "internalType": "string",
          "name": "hash",
          "type": "string"
        },
        {
          "internalType": "string",
          "name": "description",
          "type": "string"
        },
        {
          "internalType": "uint256",
          "name": "tipAmount",
          "type": "uint256"
        },
        {
          "internalType": "uint256",
          "name": "likesCount",
          "type": "uint256"
        },
        {
          "internalType": "address payable",
          "name": "author",
          "type": "address"
        }
      ],
      "stateMutability": "view",
      "type": "function",
      "constant": true
    },
    {
      "inputs": [],
      "name": "name",
      "outputs": [
        {
          "internalType": "string",
          "name": "",
          "type": "string"
        }
      ],
      "stateMutability": "view",
      "type": "function",
      "constant": true
    },
    {
      "inputs": [
        {
          "internalType": "string",
          "name": "_hash",
          "type": "string"
        },
        {
          "internalType": "string",
          "name": "_description",
          "type": "string"
        }
      ],
      "name": "upload",
      "outputs": [],
      "stateMutability": "nonpayable",
      "type": "function"
    },
    {
      "inputs": [
        {
          "internalType": "uint256",
          "name": "_id",
          "type": "uint256"
        }
      ],
      "name": "tip",
      "outputs": [],
      "stateMutability": "payable",
      "type": "function",
      "payable": true
    },
    {
      "inputs": [
        {
          "internalType": "uint256",
          "name": "_id",
          "type": "uint256"
        }
      ],
      "name": "like",
      "outputs": [],
      "stateMutability": "payable",
      "type": "function",
      "payable": true
    }
  ],
  "bytecode": "0x608060405260006001553480156200001657600080fd5b506040518060400160405280600981526020017f506978656c44617070000000000000000000000000000000000000000000000081525060009080519060200190620000649291906200006b565b5062000180565b82805462000079906200014a565b90600052602060002090601f0160209004810192826200009d5760008555620000e9565b82601f10620000b857805160ff1916838001178555620000e9565b82800160010185558215620000e9579182015b82811115620000e8578251825591602001919060010190620000cb565b5b509050620000f89190620000fc565b5090565b5b8082111562000117576000816000905550600101620000fd565b5090565b7f4e487b7100000000000000000000000000000000000000000000000000000000600052602260045260246000fd5b600060028204905060018216806200016357607f821691505b602082108114156200017a57620001796200011b565b5b50919050565b61140880620001906000396000f3fe608060405260043610610072576000357c01000000000000000000000000000000000000000000000000000000009004806306fdde0314610077578063202e4936146100a257806384856482146100cb57806392053b631461010d578063e82935da14610138578063e8b69bc314610154575b600080fd5b34801561008357600080fd5b5061008c610170565b6040516100999190610d51565b60405180910390f35b3480156100ae57600080fd5b506100c960048036038101906100c49190610ebc565b6101fe565b005b3480156100d757600080fd5b506100f260048036038101906100ed9190610f6a565b61041c565b60405161010496959493929190610fe7565b60405180910390f35b34801561011957600080fd5b50610122610588565b60405161012f9190611056565b60405180910390f35b610152600480360381019061014d9190610f6a565b61058e565b005b61016e60048036038101906101699190610f6a565b6108d1565b005b6000805461017d906110a0565b80601f01602080910402602001604051908101604052809291908181526020018280546101a9906110a0565b80156101f65780601f106101cb576101008083540402835291602001916101f6565b820191906000526020600020905b8154815290600101906020018083116101d957829003601f168201915b505050505081565b6000825111610242576040517f08c379a00000000000000000000000000000000000000000000000000000000081526004016102399061111e565b60405180910390fd5b6000815111610286576040517f08c379a000000000000000000000000000000000000000000000000000000000815260040161027d9061118a565b60405180910390fd5b600073ffffffffffffffffffffffffffffffffffffffff163373ffffffffffffffffffffffffffffffffffffffff1614156102c057600080fd5b600160008154809291906102d3906111d9565b91905055506040518060c00160405280600154815260200183815260200182815260200160008152602001600081526020013373ffffffffffffffffffffffffffffffffffffffff1681525060026000600154815260200190815260200160002060008201518160000155602082015181600101908051906020019061035a929190610c15565b506040820151816002019080519060200190610377929190610c15565b50606082015181600301556080820151816004015560a08201518160050160006101000a81548173ffffffffffffffffffffffffffffffffffffffff021916908373ffffffffffffffffffffffffffffffffffffffff1602179055509050507f6eea41342be601c4ea12a0015a41675ea55fd748beeaa35138c362e1d8dc75e66001548383600033604051610410959493929190611267565b60405180910390a15050565b6002602052806000526040600020600091509050806000015490806001018054610445906110a0565b80601f0160208091040260200160405190810160405280929190818152602001828054610471906110a0565b80156104be5780601f10610493576101008083540402835291602001916104be565b820191906000526020600020905b8154815290600101906020018083116104a157829003601f168201915b5050505050908060020180546104d3906110a0565b80601f01602080910402602001604051908101604052809291908181526020018280546104ff906110a0565b801561054c5780601f106105215761010080835404028352916020019161054c565b820191906000526020600020905b81548152906001019060200180831161052f57829003601f168201915b5050505050908060030154908060040154908060050160009054906101000a900473ffffffffffffffffffffffffffffffffffffffff16905086565b60015481565b6000811180156105a057506001548111155b6105a957600080fd5b6000600260008381526020019081526020016000206040518060c0016040529081600082015481526020016001820180546105e3906110a0565b80601f016020809104026020016040519081016040528092919081815260200182805461060f906110a0565b801561065c5780601f106106315761010080835404028352916020019161065c565b820191906000526020600020905b81548152906001019060200180831161063f57829003601f168201915b50505050508152602001600282018054610675906110a0565b80601f01602080910402602001604051908101604052809291908181526020018280546106a1906110a0565b80156106ee5780601f106106c3576101008083540402835291602001916106ee565b820191906000526020600020905b8154815290600101906020018083116106d157829003601f168201915b5050505050815260200160038201548152602001600482015481526020016005820160009054906101000a900473ffffffffffffffffffffffffffffffffffffffff1673ffffffffffffffffffffffffffffffffffffffff1673ffffffffffffffffffffffffffffffffffffffff1681525050905060008160a0015190508073ffffffffffffffffffffffffffffffffffffffff166108fc349081150290604051600060405180830381858888f193505050501580156107b2573d6000803e3d6000fd5b50600182608001516107c491906112c8565b8260800181815250508160026000858152602001908152602001600020600082015181600001556020820151816001019080519060200190610807929190610c15565b506040820151816002019080519060200190610824929190610c15565b50606082015181600301556080820151816004015560a08201518160050160006101000a81548173ffffffffffffffffffffffffffffffffffffffff021916908373ffffffffffffffffffffffffffffffffffffffff1602179055509050507ffd94ed641b186e893e3e11278c68040f2fce2a19a27b9b30411928de42e5d612838360200151846040015185608001516040516108c4949392919061131e565b60405180910390a1505050565b6000811180156108e357506001548111155b6108ec57600080fd5b6000600260008381526020019081526020016000206040518060c001604052908160008201548152602001600182018054610926906110a0565b80601f0160208091040260200160405190810160405280929190818152602001828054610952906110a0565b801561099f5780601f106109745761010080835404028352916020019161099f565b820191906000526020600020905b81548152906001019060200180831161098257829003601f168201915b505050505081526020016002820180546109b8906110a0565b80601f01602080910402602001604051908101604052809291908181526020018280546109e4906110a0565b8015610a315780601f10610a0657610100808354040283529160200191610a31565b820191906000526020600020905b815481529060010190602001808311610a1457829003601f168201915b5050505050815260200160038201548152602001600482015481526020016005820160009054906101000a900473ffffffffffffffffffffffffffffffffffffffff1673ffffffffffffffffffffffffffffffffffffffff1673ffffffffffffffffffffffffffffffffffffffff1681525050905060008160a0015190508073ffffffffffffffffffffffffffffffffffffffff166108fc349081150290604051600060405180830381858888f19350505050158015610af5573d6000803e3d6000fd5b50348260600151610b0691906112c8565b8260600181815250508160026000858152602001908152602001600020600082015181600001556020820151816001019080519060200190610b49929190610c15565b506040820151816002019080519060200190610b66929190610c15565b50606082015181600301556080820151816004015560a08201518160050160006101000a81548173ffffffffffffffffffffffffffffffffffffffff021916908373ffffffffffffffffffffffffffffffffffffffff1602179055509050507f2f93c5e1221ec7167ca5e0695ab7b7f4852db08f02103e0c932ea2e71895657a8383602001518460400151856060015185604051610c08959493929190611371565b60405180910390a1505050565b828054610c21906110a0565b90600052602060002090601f016020900481019282610c435760008555610c8a565b82601f10610c5c57805160ff1916838001178555610c8a565b82800160010185558215610c8a579182015b82811115610c89578251825591602001919060010190610c6e565b5b509050610c979190610c9b565b5090565b5b80821115610cb4576000816000905550600101610c9c565b5090565b600081519050919050565b600082825260208201905092915050565b60005b83811015610cf2578082015181840152602081019050610cd7565b83811115610d01576000848401525b50505050565b6000601f19601f8301169050919050565b6000610d2382610cb8565b610d2d8185610cc3565b9350610d3d818560208601610cd4565b610d4681610d07565b840191505092915050565b60006020820190508181036000830152610d6b8184610d18565b905092915050565b6000604051905090565b600080fd5b600080fd5b600080fd5b600080fd5b7f4e487b7100000000000000000000000000000000000000000000000000000000600052604160045260246000fd5b610dc982610d07565b810181811067ffffffffffffffff82111715610de857610de7610d91565b5b80604052505050565b6000610dfb610d73565b9050610e078282610dc0565b919050565b600067ffffffffffffffff821115610e2757610e26610d91565b5b610e3082610d07565b9050602081019050919050565b82818337600083830152505050565b6000610e5f610e5a84610e0c565b610df1565b905082815260208101848484011115610e7b57610e7a610d8c565b5b610e86848285610e3d565b509392505050565b600082601f830112610ea357610ea2610d87565b5b8135610eb3848260208601610e4c565b91505092915050565b60008060408385031215610ed357610ed2610d7d565b5b600083013567ffffffffffffffff811115610ef157610ef0610d82565b5b610efd85828601610e8e565b925050602083013567ffffffffffffffff811115610f1e57610f1d610d82565b5b610f2a85828601610e8e565b9150509250929050565b6000819050919050565b610f4781610f34565b8114610f5257600080fd5b50565b600081359050610f6481610f3e565b92915050565b600060208284031215610f8057610f7f610d7d565b5b6000610f8e84828501610f55565b91505092915050565b610fa081610f34565b82525050565b600073ffffffffffffffffffffffffffffffffffffffff82169050919050565b6000610fd182610fa6565b9050919050565b610fe181610fc6565b82525050565b600060c082019050610ffc6000830189610f97565b818103602083015261100e8188610d18565b905081810360408301526110228187610d18565b90506110316060830186610f97565b61103e6080830185610f97565b61104b60a0830184610fd8565b979650505050505050565b600060208201905061106b6000830184610f97565b92915050565b7f4e487b7100000000000000000000000000000000000000000000000000000000600052602260045260246000fd5b600060028204905060018216806110b857607f821691505b602082108114156110cc576110cb611071565b5b50919050565b7f696d616765206973207265717569726564000000000000000000000000000000600082015250565b6000611108601183610cc3565b9150611113826110d2565b602082019050919050565b60006020820190508181036000830152611137816110fb565b9050919050565b7f6465736372697074696f6e206973207265717569726564000000000000000000600082015250565b6000611174601783610cc3565b915061117f8261113e565b602082019050919050565b600060208201905081810360008301526111a381611167565b9050919050565b7f4e487b7100000000000000000000000000000000000000000000000000000000600052601160045260246000fd5b60006111e482610f34565b91507fffffffffffffffffffffffffffffffffffffffffffffffffffffffffffffffff821415611217576112166111aa565b5b600182019050919050565b6000819050919050565b6000819050919050565b600061125161124c61124784611222565b61122c565b610f34565b9050919050565b61126181611236565b82525050565b600060a08201905061127c6000830188610f97565b818103602083015261128e8187610d18565b905081810360408301526112a28186610d18565b90506112b16060830185611258565b6112be6080830184610fd8565b9695505050505050565b60006112d382610f34565b91506112de83610f34565b9250827fffffffffffffffffffffffffffffffffffffffffffffffffffffffffffffffff03821115611313576113126111aa565b5b828201905092915050565b60006080820190506113336000830187610f97565b81810360208301526113458186610d18565b905081810360408301526113598185610d18565b90506113686060830184610f97565b95945050505050565b600060a0820190506113866000830188610f97565b81810360208301526113988187610d18565b905081810360408301526113ac8186610d18565b90506113bb6060830185610f97565b6113c86080830184610fd8565b969550505050505056fea26469706673582212209eca00c440229f94659507767fbd5f6f27fada0a338318b53c444c627434c37164736f6c634300080c0033",
  "immutableReferences": {},
  "source": "// SPDX-License-Identifier: MIT\npragma solidity >=0.4.22 <0.9.0;\n\ncontract PixelDapp {\n\n  struct Pixel{\n    uint id;\n    string hash;\n    string description;\n    uint tipAmount;\n    uint likesCount;\n    address payable author;\n  }\n  \n  string public name;\n  uint public imageCount = 0;\n\n  mapping(uint => Pixel) public images;\n\n  event CreatePixel( uint id, string hash, string description, uint tipAmount, address payable author );\n\n  event TipPixel( uint id, string hash, string description, uint tipAmount, address payable author );\n\n  event LikePixel( uint id, string hash, string description, uint likeCount );\n\n  /** \n  @dev contract constructor: this is used to instatiate the contract\n  */\n  constructor () {\n\n    name = \"PixelDapp\";\n\n  }\n\n  function upload(string memory _hash, string memory _description) public {\n\n    require(bytes(_hash).length > 0, 'image is required');\n    require(bytes(_description).length > 0, 'description is required');\n    require(msg.sender != address(0));\n\n    imageCount++;\n    images[imageCount] = Pixel(imageCount, _hash, _description, 0,0, payable(msg.sender));\n\n    // emit event\n    emit CreatePixel(imageCount, _hash, _description, 0, payable(msg.sender));\n\n  }\n\n  function tip(uint _id) public payable {\n    \n    require(_id > 0 && _id <= imageCount); // make sure the id is valid\n    Pixel memory _image = images[_id]; // get the image\n    address payable _author = _image.author; // get the author\n\n    // pay the author\n    payable(address(_author)).transfer(msg.value);\n\n    // increase tip amount\n    _image.tipAmount = _image.tipAmount + msg.value;\n\n    // update the image\n    images[_id] = _image;\n\n    // emit event\n    emit TipPixel(_id, _image.hash, _image.description, _image.tipAmount, _author);\n\n  }\n\n  function like(uint _id) public payable {\n\n    require(_id > 0 && _id <= imageCount); // make sure the id is valid\n    Pixel memory _image = images[_id]; // get the image\n    address payable _author = _image.author; // get the author\n\n    // pay the author\n    payable(address(_author)).transfer(msg.value);\n\n    // increase like count\n    _image.likesCount = _image.likesCount + 1;\n\n    // update the image\n    images[_id] = _image;\n\n    // emit event\n    emit LikePixel(_id, _image.hash, _image.description, _image.likesCount);\n\n  }\n\n}\n",
  "sourcePath": "/Users/immanuel/Documents/web3/PixelDapp/src/contracts/PixelDapp.sol",
  "compiler": {
    "name": "solc",
    "version": "0.8.12+commit.f00d7308.Emscripten.clang"
  },
  "schemaVersion": "3.4.6",
  "updatedAt": "2022-03-12T14:42:28.595Z",
  "networkType": "ethereum",
  "devdoc": {
    "kind": "dev",
    "methods": {
      "constructor": {
        "details": "contract constructor: this is used to instatiate the contract"
      }
    },
    "version": 1
  },
  "userdoc": {
    "kind": "user",
    "methods": {},
    "version": 1
  }
}